:100000000C9434000C9451000C9451000C94510049
:100010000C9451000C9451000C9451000C9451001C
:100020000C9451000C9451000C9451000C9451000C
:100030000C9451000C9451000C9451000C945100FC
:100040000C9451000C9451000C9451000C945100EC
:100050000C9451000C9403020C9451000C94510028
:100060000C9451000C94510011241FBECFEFD8E026
:10007000DEBFCDBF11E0A0E0B1E0E2E9FCE002C0EC
:1000800005900D92AE32B107D9F721E0AEE2B1E0B2
:1000900001C01D92A333B207E1F70E94B5010C9491
:1000A00047060C940000CF93DF93CDB7DEB78CE703
:1000B00090E020E4FC0120838AE790E02FECFC0133
:1000C00020830000DF91CF910895CF93DF93CDB7C8
:1000D000DEB784E290E02FE0FC01208385E290E02F
:1000E0002FE0FC01208387E290E02FEFFC012083CA
:1000F00088E290E02FEFFC0120830000DF91CF9198
:100100000895CF93DF93CDB7DEB784E490E022E08B
:10011000FC01208384E490E022E0FC01208387E45A
:1001200090E028ECFC0120830000DF91CF9108953E
:10013000CF93DF9300D0CDB7DEB79A83898380EC6D
:1001400090E0FC01108281EC90E028E0FC0120832B
:1001500082EC90E026E0FC01208385EC90E0298190
:100160003A81232F3327FC01208384EC90E02981FE
:10017000FC01208300000F900F90DF91CF91089534
:10018000CF93DF931F92CDB7DEB78983000080EC59
:1001900090E0FC018081882F90E080729927892B64
:1001A000B1F386EC90E02981FC01208300000F90E0
:1001B000DF91CF910895CF93DF9300D000D01F92AD
:1001C000CDB7DEB79D838C831A8219821CC085E36C
:1001D00090E0FC0180818B8305C085E390E0FC0109
:1001E00080818B838B81882F90E082709927892B67
:1001F000A1F385E390E02B81FC01208389819A8122
:1002000001969A83898329813A818C819D8128175F
:100210003907E8F200000F900F900F900F900F90A9
:10022000DF91CF910895CF93DF9300D0CDB7DEB7A4
:100230009A83898310922E011DC080912E01882FF0
:1002400090E029813A81820F931FFC0180810E94F6
:10025000C00080912E01882F90E029813A81820F81
:10026000931FFC0180818A3091F080912E018F5F75
:1002700080932E0180912E01882F90E029813A8170
:10028000820F931FFC0180818823B9F601C0000012
:1002900000000F900F90DF91CF910895CF93DF93DF
:1002A00000D000D0CDB7DEB78C838C8189831B82D0
:1002B0001A8219C08A819B81880F991F80509F4F95
:1002C000FC0190818C81981749F48A819B81880F69
:1002D000991F8F5F9E4FFC01808189838A819B815A
:1002E00001969B838A838A819B81880F991F805006
:1002F0009F4FFC0180818A35E9F689810F900F902C
:100300000F900F90DF91CF910895CF93DF9300D09E
:100310001F92CDB7DEB78A836B838A81282F30E0A6
:1003200081E090E002C0880F991F2A95E2F7898347
:1003300085E290E0FC01108281E090E00E94DB0009
:1003400085E290E02981FC01208388E290E02B8106
:10035000FC0120838CE290E00E94DB0000000F9003
:100360000F900F90DF91CF910895CF93DF9300D03E
:1003700000D000D0CDB7DEB70E9465000E945300C8
:1003800088E090E00E9498000E94810078948AE7BB
:1003900090E02AE730E0F90120812064FC0120830D
:1003A0008CE191E00E941301F89480912F018B83DE
:1003B000809130018C83809131018D838091320155
:1003C0008E8378941A82198219C08B81682F80E0FD
:1003D0000E9485018C81682F81E00E9485018D81BA
:1003E000682F82E00E9485018E81682F83E00E9441
:1003F000850189819A8101969A83898389819A816D
:100400004E971CF3D1CF1F920F9200905F000F9276
:1004100011242F933F934F935F936F937F938F9309
:100420009F93AF93BF93EF93FF93CF93DF93CDB79A
:10043000DEB7A497DEBFCDBF88E790E0FC018081E6
:10044000882F90E0A0E0B0E089879A87AB87BC87CF
:1004500089E790E0FC018081882F90E0982F882721
:10046000092E000CAA0BBB0B29853A854B855C85B0
:10047000822B932BA42BB52B89879A87AB87BC87BC
:1004800029853A854B855C8584EF91E0DC010E94EB
:100490004303DC01CB01BB2324F481509C4FAF4FBD
:1004A000BF4F072E7AE0B595A795979587957A95D2
:1004B000D1F7702D8D879E87AF87B88B8D859E85F0
:1004C000AF85B889880F991FAA1FBB1F9C01AD017A
:1004D000220F331F441F551F220F331F441F551F68
:1004E000820F931FA41FB51F898B9A8BAB8BBC8B7C
:1004F0008C898F938B898F938A898F9389898F9326
:100500008AE291E0892F8F938AE291E08F93CE0166
:100510004596292F2F938F930E945D034DB75EB7A9
:10052000485F5F4F0FB6F894DEBF0FBECDBF1A8293
:10053000198205C089819A8101969A8389839E01D7
:100540002B5E3F4F89819A81820F931FFC0180812E
:10055000882381F710922F011092300110923101FF
:100560001092320118861F821C821B8220C09E01BD
:100570002B5E3F4F8B819C81820F931FFC018081FA
:10058000803380F09E012B5E3F4F8B819C81820FD8
:10059000931FFC0180818A3328F48F81988501960E
:1005A00098878F838B819C8101969C838B838B8121
:1005B0009C810497E4F224E030E089819A81A901CA
:1005C000481B590BCA019C838B83CE0145969E83A1
:1005D0008D8317C08D819E81FC0180810E944E0118
:1005E000282F8B819C81815D9E4FFC0120838D8112
:1005F0009E8101969E838D838B819C8101969C8335
:100600008B838B819C8104972CF38F819885019734
:1006100069F48091300180932F01809131018093A2
:10062000300180E30E944E01809331018EE20E94EE
:100630004E01982F80913101892B809331018AE7F7
:1006400090E02AE730E0F90120812064FC0120835A
:100650000000A4960FB6F894DEBF0FBECDBFDF91A9
:10066000CF91FF91EF91BF91AF919F918F917F912A
:100670006F915F914F913F912F910F9000925F008A
:100680000F901F9018950E944E03A59F900DB49F48
:10069000900DA49F800D911D11240895A29FB0017B
:1006A000B39FC001A39F700D811D1124911DB29FA6
:1006B000700D811D1124911D0895AEE0B0E0E3E6B8
:1006C000F3E00C941E060D891E8986E08C831A8344
:1006D00009838FEF9FE79E838D83AE01475E5F4F57
:1006E0006F89788DCE0101960E947F03EF81F88596
:1006F000E00FF11F10822E96E4E00C943A06ABE076
:10070000B0E0E5E8F3E00C9410066C017B018A018F
:10071000FC0117821682838181FFCCC1CE01019634
:100720003C01F6019381F70193FD859193FF81913F
:100730007F01882309F4BAC1853239F493FD85918C
:1007400093FF81917F01853229F4B60190E00E94E8
:100750007605E7CF912C212C312CFFE1F315D8F051
:100760008B3279F038F4803279F08332A1F4232D82
:1007700020611DC08D3261F0803369F4232D21602A
:1007800016C0832D8260382EE32DE4603E2E2AC0F1
:10079000F32DF8601DC037FC2DC020ED280F2A3046
:1007A00040F08E32B9F436FC81C1232D2064322E04
:1007B00019C036FE06C08AE0989E200D1124922EA4
:1007C00011C0EAE02E9E200D1124222EF32DF0629E
:1007D0003F2E08C08C3621F4832D8068382E02C04D
:1007E000883641F4F70193FD859193FF81917F0154
:1007F0008111B3CF982F9F7D9554933028F40C5FCF
:100800001F4F9FE399830DC0833631F0833771F01A
:10081000833509F059C021C0F801808189830E5FBA
:100820001F4F88248394912C530113C02801F2E0B8
:100830004F0E511CF801A080B18036FE03C0692D17
:1008400070E002C06FEF7FEFC5010E946B054C01A5
:100850008201F32DFF773F2E16C0280122E0420EC1
:10086000511CF801A080B18036FE03C0692D70E0F4
:1008700002C06FEF7FEFC5010E9460054C01F32DB0
:10088000F0683F2E820133FC1BC0822D90E0881659
:100890009906B0F4B60180E290E00E9476052A94B1
:1008A000F4CFF50137FC859137FE81915F01B601E8
:1008B00090E00E94760521102A9421E0821A910886
:1008C0008114910471F7E8C0843611F0893641F53E
:1008D000F80137FE07C060817181828193810C5FCE
:1008E0001F4F08C060817181072E000C880B990B87
:1008F0000E5F1F4FF32DFF763F2E97FF09C0909597
:100900008095709561957F4F8F4F9F4FF0683F2E78
:100910002AE030E0A3010E94B205882E861845C067
:10092000853731F4232D2F7EB22E2AE030E025C00A
:10093000932D997FB92E8F36C1F018F4883579F050
:10094000B5C0803719F0883721F0B0C0E92FE061D9
:10095000BE2EB4FE0DC0FB2DF460BF2E09C034FEC8
:100960000AC0292F2660B22E06C028E030E005C05C
:1009700020E130E002C020E132E0F801B7FE07C01C
:1009800060817181828193810C5F1F4F06C06081FD
:10099000718180E090E00E5F1F4FA3010E94B205BD
:1009A000882E8618FB2DFF773F2E36FE0DC0232D97
:1009B0002E7FA22E891458F434FE0BC032FC09C0DD
:1009C000832D8E7EA82E05C0B82CA32C03C0B82C76
:1009D00001C0B92CA4FE0FC0FE01E80DF11D8081FD
:1009E000803321F49A2D997EA92E09C0A2FE06C05B
:1009F000B394B39404C08A2D867809F0B394A3FC11
:100A000011C0A0FE06C0B21488F4280C922C9B18CA
:100A10000EC0B21460F4B60180E290E00E94760548
:100A2000B394F7CFB21418F42B1802C0982C212CD1
:100A3000A4FE10C0B60180E390E00E947605A2FEFD
:100A400017C0A1FC03C088E790E002C088E590E0F1
:100A5000B6010CC08A2D867859F0A1FE02C08BE247
:100A600001C080E2A7FC8DE2B60190E00E9476050D
:100A7000891438F4B60180E390E00E9476059A94D8
:100A8000F7CF8A94F301E80DF11D8081B60190E063
:100A90000E9476058110F5CF222009F442CEB601DE
:100AA00080E290E00E9476052A94F6CFF6018681D6
:100AB000978102C08FEF9FEF2B96E2E10C942C06FA
:100AC000FC010590615070400110D8F78095909519
:100AD0008E0F9F1F0895FC0161507040019001101E
:100AE000D8F7809590958E0F9F1F08950F931F93B1
:100AF000CF93DF93FB01238121FD03C08FEF9FEF95
:100B00002CC022FF16C046815781248135814217AF
:100B1000530744F4A081B1819D012F5F3F4F318382
:100B200020838C93268137812F5F3F4F3783268325
:100B300014C08B01EC01FB010084F185E02D0995C7
:100B4000892BE1F6D80116968D919C911797019605
:100B500017969C938E931697CE01DF91CF911F919C
:100B60000F910895FA01AA27283051F1203181F11F
:100B7000E8946F936E7F6E5F7F4F8F4F9F4FAF4FA5
:100B8000B1E03ED0B4E03CD0670F781F891F9A1FB8
:100B9000A11D680F791F8A1F911DA11D6A0F711D6C
:100BA000811D911DA11D20D009F468943F912AE078
:100BB000269F11243019305D3193DEF6CF01089560
:100BC000462F4770405D4193B3E00FD0C9F7F6CF91
:100BD000462F4F70405D4A3318F0495D31FD405259
:100BE000419302D0A9F7EACFB4E0A69597958795EF
:100BF00077956795BA95C9F70097610571050895CE
:100C00009B01AC010A2E0694579547953795279579
:100C1000BA95C9F7620F731F841F951FA01D089511
:100C20002F923F924F925F926F927F928F929F92FC
:100C3000AF92BF92CF92DF92EF92FF920F931F93EA
:100C4000CF93DF93CDB7DEB7CA1BDB0B0FB6F8949B
:100C5000DEBF0FBECDBF09942A88398848885F84DB
:100C60006E847D848C849B84AA84B984C884DF804C
:100C7000EE80FD800C811B81AA81B981CE0FD11D30
:100C80000FB6F894DEBF0FBECDBFED010895F89406
:020C9000FFCF94
:100C920030FC316032DA33F2346635B636BE37E0D4
:100CA20038FE39F62D022E0120005A005468657272
:0E0CB2006D6F6D657465720D0A00256C64002F
:00000001FF
